:020000040000FA
:1000000077EF00F0FF00FF005182F8ED14F0FF00E1
:10001000FF00FF00FF00FF005180D8CF2AF0E8CF9B
:100020002BF0E0CF2CF09EA018EF00F01AEF00F0BC
:100030002DEF00F09DA01FEF00F021EF00F02DEF5D
:1000400000F08992080EE82EFED7898483C0CFFF86
:1000500082C0CEFFCD909E90D58EF2A432EF00F0FC
:1000600034EF00F054EF00F0F2AA39EF00F03BEF6C
:1000700000F054EF00F081C0D7FF80C0D6FFD59EBE
:10008000F29400017A07D8A07B077A517B11D8B48B
:100090004CEF00F04EEF00F054EF00F08994080EA2
:1000A000E82EFED78982CD80A1A259EF00F05BEF48
:1000B00000F06FEF00F0A0A260EF00F062EF00F040
:1000C0006FEF00F04A2A090E4A6469EF00F06BEF07
:1000D00000F06EEF00F0000E4A6E897AA1922CC0FB
:1000E000E0FF2BC0E8FF2AC0D8FF519010000CEFB2
:1000F00017F0FF00FF00FF00FF00FF00FF00FF0000
:1008000000BF0899080B087F0839082E03420075BD
:100810000072006E00520054002000700072006FE1
:10082000006700720061006D006D006500720020BD
:1008300000760032002E003000090229000101007C
:10084000C032090400000203000000092111010068
:1008500001221D0007058103400001070501034037
:1008600000010600FF0901A1011901294015002618
:10087000FF00750895408100190129409100C01AB8
:10088000034E003200350058003800370047005A48
:1008900000540041004500510014037000690064D9
:1008A000002E0063006F00640065007300120100F9
:1008B00002000000080912FF0F00020102030104F8
:1008C0000309040004012205D8A469EF04F06BEFCA
:1008D00004F087EF04F020511F0B0009D8A473EF38
:1008E00004F075EF04F087EF04F000016B8F030E46
:1008F00004012119D8A47FEF04F081EF04F085EF03
:1009000004F0010E476E87EF04F0000E476E22518F
:10091000D8A48DEF04F08FEF04F00FEF06F0205114
:100920001F0B020AD8A497EF04F099EF04F00FEF21
:1009300006F024510F0B0009D8B4A1EF04F0A3EF87
:1009400004F00FEF06F024510F0B156E020E156028
:10095000ACEF04F0AEEF04F00FEF06F0200E000154
:100960008619D8A4B6EF04F0B8EF04F00FEF06F044
:100970006B8F040124BFBFEF04F0C1EF04F0DEEF82
:1009800004F024510F0B156E1550020D720EF32456
:10099000D96E000EF420DA6EDECF1AF0DDCF1BF038
:1009A00024510F0B156E166A760E1524D96E000EA3
:1009B0001620DA6EDF50196EF9EF04F024510F0B98
:1009C000156E1550020D6E0EF324D96E000EF42034
:1009D000DA6EDECF1AF0DDCF1BF024510F0B156E4F
:1009E000166A780E1524D96E000E1620DA6EDF50C6
:1009F000196E19B0FEEF04F000EF05F008EF05F0F6
:100A0000FB0E1A141A6EFF0E1B141B6E0DEF05F071
:100A1000040E1A101A6E1B501B6E24BF12EF05F045
:100A200014EF05F025EF05F024510F0B156E15504E
:100A3000020D720EF324D96E000EF420DA6E1AC085
:100A4000DEFF1BC0DDFF34EF05F024510F0B156EE8
:100A50001550020D6E0EF324D96E000EF420DA6EDE
:100A60001AC0DEFF1BC0DDFF030E2119D8A43BEF27
:100A700005F03DEF05F077EF05F01AC0D9FF1BC078
:100A8000DAFFDFAE46EF05F048EF05F069EF05F05D
:100A900024BF4DEF05F04FEF05F05DEF05F0245159
:100AA0000F0B156E166A760E1524D96E000E1620E1
:100AB000DA6E0001DF8269EF05F024510F0B156E2D
:100AC000166A780E1524D96E000E1620DA6E000113
:100AD000DF821AC0D9FF1BC0DAFF000EDB841AC008
:100AE000D9FF1BC0DAFF000EDB8E0FEF06F0040EFD
:100AF0001A181A6E1B501B6E1AC0D9FF1BC0DAFFE2
:100B0000DFAE85EF05F087EF05F0A3EF05F01AC023
:100B1000D9FF1BC0DAFF7F0EDF161AC0D9FF1BC03A
:100B2000DAFF000EDB8C000E0E6E050E0D6E1AC085
:100B30000FF01BC010F0000E126E020E116E22ECB0
:100B400014F0A9EF05F01AC0D9FF1BC0DAFF000EA0
:100B5000DB8C040E1A181A6E1B501B6E19B2B3EF01
:100B600005F0B5EF05F0C0EF05F01AC0D9FF1BC0C6
:100B7000DAFFDFAEBEEF05F0C0EF05F0F8EF05F0ED
:100B8000040124BFC6EF05F0C8EF05F0D6EF05F06D
:100B900024510F0B156E166A760E1524D96E000EB1
:100BA0001620DA6E0001DF92E2EF05F024510F0B00
:100BB000156E166A780E1524D96E000E1620DA6EA0
:100BC0000001DF921AC0D9FF1BC0DAFF3B0EDF160F
:100BD000000E0E6E050E0D6E1AC00FF01BC010F049
:100BE000000E126E020E116E22EC14F0FEEF05F0F4
:100BF0001AC0D9FF1BC0DAFF3B0EDF1604012451D7
:100C00000F0B156E166A700E1524176E0F0E162038
:100C1000186E17C0D9FF18C0DAFFFE0EDF161200DB
:100C2000000E00018F6F000E8E6F200E86611BEF8D
:100C300006F01DEF06F01FEF06F0A8EF07F06DA21B
:100C400024EF06F026EF06F028EF06F0A8EF07F0F5
:100C50007E517F11D8B42FEF06F031EF06F062EF2E
:100C600007F07EC0D9FF7FC0DAFFDFBE3AEF06F0A3
:100C70003CEF06F0A8EF07F062EF07F0898098EFED
:100C800007F0899098EF07F0898298EF07F0899232
:100C900098EF07F0898498EF07F0899498EF07F0B0
:100CA00001C58AFF8B8C140EE82EFED78B9C02C5E3
:100CB0008AFF8B8E140EE82EFED78B9E98EF07F0DE
:100CC0008984280EE82EFED701C584F084C090F0F8
:100CD000A8EF06F0900790C031F0010E31168B504E
:100CE0003118FE0B31188B6E90C031F0D890313234
:100CF000010E311631468B503118FD0B31188B6EB9
:100D000090C031F0D8903132D8903132010E311686
:100D1000314631468B503118FB0B31188B6E280E43
:100D2000E82EFED780B697EF06F09BEF06F0316A0B
:100D3000312A9CEF06F0316A315000018E258E6F0A
:100D4000000E8F218F6FD8908E358E6F8F358F6FFD
:100D500000019051D8A4AFEF06F0B1EF06F06AEFB2
:100D600006F08994D8908F31316E8E318E6F31C0FC
:100D70008FF0000E906F400E9025D96EDA6A050E46
:100D8000DA22000EDF6E902B3F0E9065CAEF06F060
:100D9000CCEF06F0BBEF06F07C517D11D8B4D3EF59
:100DA00006F0D5EF06F0E0EF06F07CC0D9FF7DC07D
:100DB000DAFFDFBEDEEF06F0E0EF06F098EF07F0B7
:100DC000080E0501406F84C041F500018E1F8F1F82
:100DD000040E8419D8A4EFEF06F0F1EF06F0F5EF5A
:100DE00006F00F0E8E158E6F8F6B8EC042F5010EC2
:100DF000876F400E886F050E896F400E8A6F010E57
:100E000098EC0DF087C07CF088C07DF098EF07F07B
:100E100001C584F002C54BF0045100017B6F7A6B71
:100E20000501035100017A27000E7B2306C583F0DC
:100E300005C582F008C581F007C580F0D5500501D1
:100E40000919F80B0919D56E0A514B1A040E000145
:100E50008419D8A42EEF07F030EF07F033EF07F036
:100E60004B3AF00E4B16010E856F98EF07F001C557
:100E700090F090C031F0010E31168B503118FE0BFE
:100E800031188B6E90C031F0D8903132010E31168E
:100E900031468B503118FD0B31188B6E90C031F0FC
:100EA000D8903132D8903132010E31163146314668
:100EB0008B503118FB0B31188B6E280EE82EFED7A5
:100EC00098EF07F005010051316E326A3250000A86
:100ED000D8B46DEF07F098EF07F03150010AD8B49D
:100EE0003EEF06F0030AD8B441EF06F0010AD8B489
:100EF00044EF06F0070AD8B447EF06F0010AD8B469
:100F00004AEF06F0030AD8B44DEF06F0010AD8B450
:100F100050EF06F00F0AD8B460EF06F0010AD8B41B
:100F200008EF07F0030AD8B437EF07F098EF07F09F
:100F3000000E0001876F000E886F050E896F400E4E
:100F40008A6F010E98EC0DF087C07EF088C07FF0AC
:100F5000120000018605D8A4B0EF07F0B2EF07F049
:100F6000BFEF07F06DBAB7EF07F0B9EF07F0BFEFCB
:100F700007F0000E686E69806988020E866F68A4AB
:100F8000C4EF07F0C6EF07F0D0EF07F069A4CBEF8E
:100F900007F0CDEF07F0D0EF07F06894A4EC16F05F
:100FA0006DA2D5EF07F0D7EF07F0DAEF07F0A19ABF
:100FB000BFEF08F068A0DFEF07F0E1EF07F0EFEF19
:100FC00007F069A0E6EF07F0E8EF07F0EFEF07F0B2
:100FD00050EC0CF0A08A040E0001866F689068A89F
:100FE000F4EF07F0F6EF07F0FFEF07F069A8FBEF6B
:100FF00007F0FDEF07F0FFEF07F0F6EC16F068AC36
:1010000004EF08F006EF08F031EF08F069AC0BEFE1
:1010100008F00DEF08F01BEF08F0000E0E6E730ED7
:101020000D6E000E0F6E000E106E000E126E010E91
:10103000116E22EC14F0689CDDEC16F04350D8B42D
:1010400024EF08F026EF08F027EF08F0430643509E
:10105000D8A42DEF08F02FEF08F031EF08F027ECBF
:1010600012F068AA36EF08F038EF08F041EF08F008
:1010700069AA3DEF08F03FEF08F041EF08F0DDEC22
:1010800015F068A246EF08F048EF08F05EEF08F0B0
:1010900069A24DEF08F04FEF08F05EEF08F07F0E09
:1010A0000E6E0D68000E0F6E000E106E000E126EAA
:1010B000010E116E22EC14F0000E6A6E040E000197
:1010C000866165EF08F067EF08F06AEF08F0A19A13
:1010D000BFEF08F069A66FEF08F071EF08F0BEEF00
:1010E00008F0000E1F6E68A678EF08F07AEF08F09F
:1010F000BEEF08F06CCF4EF04E30E832E8320F0B06
:10110000456E68964EB487EF08F089EF08F093EFCC
:1011100008F0760E4524D96EDA6A000EDA22000154
:10112000DF709BEF08F0780E4524D96EDA6A000E66
:10113000DA220001DF704550D8A4A1EF08F0A3EF38
:1011400008F0A7EF08F016EC13F0B5EF08F0000E6A
:101150000E6E720E0D6E4E0E0F6E000E106E000EA5
:10116000126E000E116E22EC14F01F2A030E1F6483
:10117000BCEF08F0BEEF08F073EF08F0A19A120080
:1011800087C031F088C032F000018B518C11D8A497
:10119000CCEF08F0CEEF08F0D0EF08F07BEF09F0CD
:1011A00031C0D9FF32C0DAFF89C0DFFF8B51312453
:1011B0002D6E8C5132202E6EFF0E2D24D96EFF0E17
:1011C0002E20DA6E89C0DFFF8C5107E1030E8B5DA4
:1011D000D8B0EDEF08F0EFEF08F0F1EF08F07BEF9B
:1011E00009F020EE01F03150D9263250DA2289C0C0
:1011F000DFFF20EE02F03150D9263250DA2289C0CA
:10120000DFFF8B5131242D6E8C5132202E6EFE0E5D
:101210002D24D96EFF0E2E20DA6E89C0DFFF8B5190
:1012200031242D6E8C5132202E6EFD0E2D24D96E60
:10123000FF0E2E20DA6E89C0DFFF8C5107E1070E0A
:101240008B5DD8B026EF09F028EF09F02AEF09F0FE
:101250007BEF09F020EE03F03150D9263250DA222C
:1012600089C0DFFF8B5131242D6E8C5132202E6EC0
:10127000FC0E2D24D96EFF0E2E20DA6E89C0DFFF02
:101280008C5107E1090E8B5DD8B049EF09F04BEFA7
:1012900009F04DEF09F07BEF09F031C02DF032C0BD
:1012A0002EF02D1E2E1E2D4A2E2A030E2D142F6ECB
:1012B000306A2F503126305032222F508B5F305001
:1012C0008C5BFC0E8B17FF0E8C1772EF09F031C090
:1012D000D9FF32C0DAFF89C0DFFF8B07D8A08C07A7
:1012E000314A322A8B518C11D8A479EF09F07BEF67
:1012F00009F067EF09F0120001C00BF002C00CF01A
:1013000005500610D8A487EF09F089EF09F08BEF9C
:1013100009F036EF0AF00BC0D9FF0CC0DAFF03C0AA
:10132000DFFF05500B24076E06500C20086EFF0EE1
:101330000724D96EFF0E0820DA6E03C0DFFF0650C7
:1013400007E1030E055CD8B0A8EF09F0AAEF09F099
:10135000ACEF09F036EF0AF020EE01F00B50D92681
:101360000C50DA2203C0DFFF20EE02F00B50D9262A
:101370000C50DA2203C0DFFF05500B24076E065025
:101380000C20086EFE0E0724D96EFF0E0820DA6EC0
:1013900003C0DFFF05500B24076E06500C20086EBB
:1013A000FD0E0724D96EFF0E0820DA6E03C0DFFFA2
:1013B000065007E1070E055CD8B0E1EF09F0E3EF56
:1013C00009F0E5EF09F036EF0AF020EE03F00B50DC
:1013D000D9260C50DA2203C0DFFF05500B24076E1C
:1013E00006500C20086EFC0E0724D96EFF0E082054
:1013F000DA6E03C0DFFF065007E1090E055CD8B0C6
:1014000004EF0AF006EF0AF008EF0AF036EF0AF0F0
:101410000BC007F00CC008F0071E081E074A082A78
:10142000030E0714096E0A6A09500B260A500C2293
:101430000950055E0A50065AFC0E0516FF0E0616E8
:101440002DEF0AF00BC0D9FF0CC0DAFF03C0DFFF9D
:101450000506D8A006060B4A0C2A05500610D8A48B
:1014600034EF0AF036EF0AF022EF0AF01200800E95
:1014700004012019D8A43FEF0AF041EF0AF0F0EF81
:101480000AF0C00E00016B6FD6EF0AF0AD0E00013E
:10149000686F080E696F000E6D6F120E6C6FF0EFC3
:1014A0000AF02251D8A457EF0AF059EF0AF09AEF48
:1014B0000AF02251020D090EF324F66E080EF420F4
:1014C000F76E0900F5CF68F00A00F5CF69F0020E5B
:1014D00000016825016E000E6921026E01C0F6FF51
:1014E00002C0F7FFF86A070EF76403D00800F55052
:1014F00005D0F6CFE1FFF7CFE2FFE75000016C6FB8
:10150000030E6825016E000E6921026E01C0F6FF10
:1015100002C0F7FFF86A070EF76403D00800F55021
:1015200005D0F6CFE1FFF7CFE2FFE75000016D6F86
:10153000F0EF0AF0000E00016B6FF0EF0AF0040EFE
:101540002261A5EF0AF0A7EF0AF0CCEF0AF02251D2
:10155000020D010EF324F66E080EF420F76E09005A
:10156000F5CF68F00A00F5CF69F068C0F6FF69C0F2
:10157000F7FFF86A070EF76403D00800F55005D0AE
:10158000F6CFE1FFF7CFE2FFE750016E0150000117
:101590006C6F6D6BF0EF0AF0000E00016B6FF0EFF7
:1015A0000AF0000E00016B6FF0EF0AF00401235106
:1015B000016E026A0250000AD8B4E1EF0AF0D1EFDE
:1015C0000AF00150010AD8B446EF0AF0030AD8B471
:1015D00051EF0AF0010AD8B49FEF0AF0D1EF0AF0F8
:1015E0001200040120511F0BE806D8B4FAEF0AF0EC
:1015F000FCEF0AF0FEEF0AF0A9EF0BF02451D8B48B
:1016000004EF0BF006EF0BF008EF0BF0A9EF0BF077
:10161000060E2119D8A40FEF0BF011EF0BF04EEFCF
:101620000BF035EF0BF05004D8A419EF0BF01BEFC3
:101630000BF04EEF0BF04B0E0001686F080E696F58
:10164000000E6D6F090E6C6FC00E6B6F4EEF0BF0DE
:10165000620E0001686F080E696F000E6D6F1D0E3F
:101660006C6FC00E6B6F4EEF0BF02351016E026A70
:101670000250000AD8B43FEF0BF04EEF0BF00150D0
:10168000210AD8B413EF0BF0030AD8B428EF0BF0FB
:10169000010AD8B44EEF0BF04EEF0BF004012039E5
:1016A000E832030BE806D8B458EF0BF05AEF0BF012
:1016B00084EF0BF0A9EF0BF04D0E0001686F000EE8
:1016C000696F000E6D6F010E6C6FC10E6B6FA9EF2D
:1016D0000BF0800E00016B6F23C44DF0A9EF0BF0EF
:1016E0004C0E0001686F000E696F000E6D6F010EE9
:1016F0006C6F810E6B6FA9EF0BF0800E00016B6FAA
:1017000022C44CF0A9EF0BF02151016E026A025085
:10171000000AD8B48EEF0BF0A9EF0BF00150010ACC
:10172000D8B4A9EF0BF0030AD8B45CEF0BF0010AB0
:10173000D8B470EF0BF00A0AD8B4A9EF0BF0030A83
:10174000D8B469EF0BF0010AD8B47DEF0BF0A9EF24
:101750000BF01200A09A000E6A6E000E686E000E6A
:10176000706E710E0001876F0F0E886F000E8A6F0A
:10177000000E896F000E8C6F010E8B6FC0EC08F0AD
:10178000160E6F6E9F0E6B6E7B0E696E000E000163
:101790008D6F8D51040D000EF324D96E040EF420CC
:1017A000DA6EDE6ADE6ADE6ADD6A8D2B070E8D6513
:1017B000DCEF0BF0DEEF0BF0C9EF0BF06D8C000EE1
:1017C0006E6E6D986D9C6896000E6B6F000E636F69
:1017D000000E656F000E646F68B6F1EF0BF0F3EF6B
:1017E0000BF0E3EF0BF0010E416E010E406E000EA8
:1017F0003F6E000E3E6E000E466E000E8D6F8D51D8
:10180000020D6E0EF324D96E000EF420DA6E000E77
:10181000DE6E000EDD6E8D51020D720EF324D96E58
:10182000000EF420DA6E000EDE6E000EDD6E780E15
:101830008D25D96EDA6A000EDA22000EDF6E760E82
:101840008D25D96EDA6A000EDA22000EDF6E8D2B3E
:10185000010E8D652EEF0CF030EF0CF0FFEF0BF06A
:10186000080E6E6F040E6F6F160E706E040E04017C
:10187000036F200E026F080E016F040E006F008FC1
:10188000000E506E000E336E000E346E000E356E7C
:10189000000E366E000E3D6E000E0001866F1200C7
:1018A000A09A000E6A6E000E686E000E706E710EC9
:1018B000016E0F0E026E000E046E000E036E000E1F
:1018C000066E010E056E7CEC09F0160E6F6E9F0E13
:1018D0006B6E7B0E696E000E0D6E0D50040D000ECA
:1018E000F324D96E040EF420DA6EDE6ADE6ADE6A54
:1018F000DD6A0D2A070E0D6480EF0CF082EF0CF00C
:101900006DEF0CF06D8C000E6E6E6D986D9C689690
:10191000000E00016B6F000E636F000E656F000E0E
:10192000646F68B696EF0CF098EF0CF087EF0CF050
:10193000010E416E010E406E000E3F6E000E3E6EB7
:10194000000E466E000E0D6E0D50020D6E0EF3244D
:10195000D96E000EF420DA6E000EDE6E000EDD6E23
:101960000D50020D720EF324D96E000EF420DA6EC3
:10197000000EDE6E000EDD6E780E0D24D96EDA6A72
:10198000000EDA22000EDF6E760E0D24D96EDA6AB2
:10199000000EDA22000EDF6E0D2A010E0D64D3EF69
:1019A0000CF0D5EF0CF0A4EF0CF0080E00016E6FF8
:1019B000040E6F6F160E706E040E0401036F200E7E
:1019C000026F080E016F040E006F008F000E506E44
:1019D000000E336E000E346E000E356E000E366E45
:1019E000000E3D6E000E0001866F120020EE01F029
:1019F0003B50D9263C50DA22DF50026E02500001E3
:101A0000645D000E6559D8B008EF0DF00AEF0DF0D7
:101A10000CEF0DF064C002F00250645F000E655BD5
:101A2000000E016E23EF0DF0280E0124D96EDA6A44
:101A3000040EDA2260C0E1FF61C0E2FFDFCFE7FF02
:101A4000604B612B012A0250015CD8A02AEF0DF0F7
:101A50002CEF0DF014EF0DF064516511D8B433EF95
:101A60000DF035EF0DF06EEF0DF020EE01F0395076
:101A7000D9263A50DA22080EDF6E20EE02F03950F5
:101A8000D9263A50DA22280EDE6E040EDD6E3BC0F7
:101A9000D9FF3CC0DAFFDFBC50EF0DF052EF0DF084
:101AA00060EF0DF039C0D9FF3AC0DAFF480EDF6EA3
:101AB00039C0D9FF3AC0DAFF000EDB8E97EF0DF088
:101AC00039C0D9FF3AC0DAFF080EDF6E39C0D9FF3E
:101AD0003AC0DAFF000EDB8E97EF0DF020EE01F03A
:101AE0003950D9263A50DA22080EDF6E20EE02F085
:101AF0003950D9263A50DA22200EDE6E040EDD6E01
:101B000039C0D9FF3AC0DAFF040EDF6E39C0D9FF01
:101B10003AC0DAFF000EDB8E639F4250D8A493EFE9
:101B20000DF095EF0DF097EF0DF027EC12F012008D
:101B300000018B6F00018751D8B4A1EF0DF0A3EF26
:101B40000DF0B1EF0DF08B51020D6E0EF324D96E36
:101B5000000EF420DA6EDECF8CF0DDCF8DF0BDEF1D
:101B60000DF08B51020D720EF324D96E000EF4208D
:101B7000DA6EDECF8CF0DDCF8DF08C518D11D8A4D4
:101B8000C4EF0DF0C6EF0DF0CCEF0DF0000E876F37
:101B9000000E886F38EF0EF020EE02F08C51D9263F
:101BA0008D51DA2288C0DEFF89C0DDFF20EE01F012
:101BB0008C51D9268D51DA228AC0DFFF8CC0D9FF23
:101BC0008DC0DAFF400EDF168CC0D9FF8DC0DAFF62
:101BD000000EDB868CC0D9FF8DC0DAFF000EDB8ED5
:101BE0008751D8B4F6EF0DF0F8EF0DF017EF0EF0C7
:101BF0008B51020D6E0EF324D96E000EF420DA6EB6
:101C0000DECF2DF0DDCF2EF0040E2D182F6E2E50CE
:101C1000306E8B51020D6E0EF324D96E000EF4203F
:101C2000DA6E2FC0DEFF30C0DDFF34EF0EF08B51D7
:101C3000020D720EF324D96E000EF420DA6EDECFA0
:101C40002DF0DDCF2EF0040E2D182F6E2E50306E9D
:101C50008B51020D720EF324D96E000EF420DA6E51
:101C60002FC0DEFF30C0DDFF8CC087F08DC088F054
:101C700012006D9800016BBF40EF0EF042EF0EF0C6
:101C800087EF0EF063AF47EF0EF049EF0EF05BEF1A
:101C90000EF0020E486E3E50D8A451EF0EF053EFF6
:101CA0000EF055EF0EF072EC13F0000E406E000EC9
:101CB000416ED9EF0EF020EE01F03950D9263A509E
:101CC000DA22080EDF6E20EE02F03950D9263A50A3
:101CD000DA22200EDE6E040EDD6E39C0D9FF3AC066
:101CE000DAFF0C0EDF6E39C0D9FF3AC0DAFF000E02
:101CF000DB8E6EC0D9FF6FC0DAFF040EDF6E6EC0E0
:101D0000D9FF6FC0DAFF000EDB8ED9EF0EF00401B1
:101D100020AF8DEF0EF08FEF0EF0ABEF0EF0010E57
:101D2000486E3F50D8A497EF0EF099EF0EF09BEF5E
:101D30000EF072EC13F0000E406E000E416E425039
:101D4000D8A4A5EF0EF0A7EF0EF0D9EF0EF027EC18
:101D500012F0D9EF0EF0020E486E20EE01F039506D
:101D6000D9263A50DA22080EDF6E20EE02F0395002
:101D7000D9263A50DA22200EDE6E040EDD6E39C00E
:101D8000D9FF3AC0DAFF040EDF6E39C0D9FF3AC07E
:101D9000DAFF000EDB8E000E406E000E416E4250E8
:101DA000D8A4D5EF0EF0D7EF0EF0D9EF0EF0A7EFD5
:101DB0000EF01200096E0150D8B4E1EF0EF0E3EF1F
:101DC0000EF0F1EF0EF00950020D6E0EF324D96EF5
:101DD000000EF420DA6EDECF0AF0DDCF0BF0FDEF5F
:101DE0000EF00950020D720EF324D96E000EF4208D
:101DF000DA6EDECF0AF0DDCF0BF00A500B10D8A45C
:101E000004EF0FF006EF0FF00CEF0FF0000E016E75
:101E1000000E026E78EF0FF020EE02F00A50D92685
:101E20000B50DA2202C0DEFF03C0DDFF20EE01F01E
:101E30000A50D9260B50DA2204C0DFFF0AC0D9FFAE
:101E40000BC0DAFF400EDF160AC0D9FF0BC0DAFF65
:101E5000000EDB860AC0D9FF0BC0DAFF000EDB8E56
:101E60000150D8B436EF0FF038EF0FF057EF0FF006
:101E70000950020D6E0EF324D96E000EF420DA6EB6
:101E8000DECF05F0DDCF06F0040E0518076E065014
:101E9000086E0950020D6E0EF324D96E000EF42068
:101EA000DA6E07C0DEFF08C0DDFF74EF0FF00950E7
:101EB000020D720EF324D96E000EF420DA6EDECF1E
:101EC00005F0DDCF06F0040E0518076E0650086E0B
:101ED0000950020D720EF324D96E000EF420DA6E52
:101EE00007C0DEFF08C0DDFF0AC001F00BC002F032
:101EF000120004012039E832030B0009D8B483EF43
:101F00000FF085EF0FF0D2EF0FF00BEF10F00001A4
:101F10006B8F080E866F0BEF10F037EC0AF00BEFAB
:101F200010F0A0EC12F00BEF10F0500E0001686FF3
:101F3000000E696F6B81010E6C6F6B8F0BEF10F0F1
:101F40000CEC10F00BEF10F062EC04F00BEF10F063
:101F50004F0E24250001686F696B000E69236B81A9
:101F6000010E6C6F6B8F0BEF10F000016B8F4F0E3B
:101F700004012425D96EDA6A000EDA2222C4DFFFBA
:101F80000BEF10F0000E0E6E020E0D6E000E0F6EB7
:101F9000000E106E000E126E000E116E22EC14F088
:101FA0000BEF10F021511C6E1D6A1D50000AD8B4B1
:101FB000DCEF0FF00BEF10F01C50000AD8B4A0EFCC
:101FC0000FF0010AD8B4A4EF0FF0020AD8B4A4EFBE
:101FD0000FF0060AD8B487EF0FF0030AD8B48DEFDC
:101FE0000FF0010AD8B4C2EF0FF00F0AD8B495EF82
:101FF0000FF0010AD8B491EF0FF0030AD8B4A8EF9C
:102000000FF0010AD8B4B5EF0FF0070AD8B40BEF00
:1020100010F00BEF10F01200000E0401286F000EFC
:10202000296F73EF10F000016B8F4704D8A41BEFEA
:1020300010F01DEF10F08DEF10F0040128838DEFEC
:1020400010F000016B8F8DEF10F000016B8F040119
:1020500024510F0B0009D8B430EF10F032EF10F01C
:102060008DEF10F024BF37EF10F039EF10F04AEF8A
:1020700010F024510F0B016E0150020D720EF3246B
:10208000D96E000EF420DA6EDECF03F0DDCF04F05F
:1020900059EF10F024510F0B016E0150020D6E0E1E
:1020A000F324D96E000EF420DA6EDECF03F0DDCF1C
:1020B00004F003C0D9FF04C0DAFFDFAE62EF10F016
:1020C00064EF10F08DEF10F003C0D9FF04C0DAFF09
:1020D000DFA46DEF10F06FEF10F08DEF10F0010E38
:1020E000286F8DEF10F020511F0B016E026A025015
:1020F000000AD8B47EEF10F08DEF10F00150000A06
:10210000D8B413EF10F0010AD8B421EF10F0030A8D
:10211000D8B425EF10F08DEF10F000016BAF93EF06
:1021200010F095EF10F09CEF10F0280E686F040E81
:10213000696F6B81020E6C6F1200080E016E000158
:102140006D5107E1080E6C5DD8B0A9EF10F0ABEF50
:1021500010F0C3EF10F06CC001F04950D8A4B3EFF9
:1021600010F0B5EF10F0B9EF10F0010E496EC3EFAB
:1021700010F04904D8A4BFEF10F0C1EF10F0C3EF86
:1021800010F0020E496E01506C5F000E6D5B20EE88
:1021900001F06E51D9266F51DA2201C0DFFF280EFF
:1021A000376E040E386E6BB1D8EF10F0DAEF10F026
:1021B0001CEF11F0F7EF10F068C0F6FF69C0F7FFF1
:1021C000F86A37C0D9FF38C0DAFF070EF76403D0CA
:1021D0000800F55005D0F6CFE1FFF7CFE2FFE7505A
:1021E000DF6E0001684B692B374A382A010601501F
:1021F000D8A4FDEF10F0FFEF10F0DCEF10F024EFAB
:1022000011F068C0F6FF69C0F7FFF86A37C0D9FF60
:1022100038C0DAFF070EF76403D00800F55005D088
:10222000F6CFE1FFF7CFE2FFE750DF6E0001684B2A
:10223000692B374A382A01060150D8A422EF11F041
:1022400024EF11F001EF11F012006EC0D9FF6FC042
:10225000DAFF0001000EDFBC010E026E040E6E19E3
:102260006E6F6F516F6F080E8619D8A43AEF11F098
:102270003CEF11F050EF11F0040122517F0B6E6E14
:102280006E50D8B446EF11F048EF11F04DEF11F059
:10229000100E0001866F50EF11F0040E0001866FE2
:1022A0004804D8A456EF11F058EF11F09FEF11F049
:1022B00020EE02F06E51D9266F51DA22280EDE6E22
:1022C000040EDD6E9DEC10F0020E4918D8A46BEFE1
:1022D00011F06DEF11F07BEF11F06EC0D9FF6FC000
:1022E000DAFF040EDF6E6EC0D9FF6FC0DAFF000E9A
:1022F000DB8EA9EF11F00250D8A481EF11F083EF2B
:1023000011F091EF11F06EC0D9FF6FC0DAFF480EE7
:10231000DF6E6EC0D9FF6FC0DAFF000EDB8EA9EF53
:1023200011F06EC0D9FF6FC0DAFF080EDF6E6EC00D
:10233000D9FF6FC0DAFF000EDB8EA9EF11F063AF9B
:10234000A4EF11F0A6EF11F0A7EF11F0639F000EBC
:10235000486E1200000E6DEC15F0AAEC0BF05BEC71
:1023600016F080EC16F000018505D8A4BAEF11F044
:10237000BCEF11F021EF12F083C0CFFF82C0CEFF7F
:1023800081C0D7FF80C0D6FF84C095F04BC094F0C9
:1023900013EF12F095074BAED0EF11F0D2EF11F022
:1023A00011EF12F095C091F0010E91178B50911919
:1023B000FE0B91198B6E95C091F0D8909133010E60
:1023C000911791478B509119FD0B91198B6E95C008
:1023D00091F0D8909133D8909133010E9117914795
:1023E00091478B509119FB0B91198B6E280EE82E9B
:1023F000FED77AC092F07BC093F08994080EE82E45
:10240000FED78982CD8000017A517B11D8A40BEFD1
:1024100012F00DEF12F003EF12F092C07AF093C0B9
:102420007BF0D8904B369551D8A419EF12F01BEFE2
:1024300012F0CAEF11F0000E856F94C04BF0B8ECAB
:1024400014F010EC06F0B3EF11F077EF00F041500C
:10245000D8A42DEF12F02FEF12F09FEF12F0010E23
:10246000416E4050D8A437EF12F039EF12F09FEFD1
:1024700012F0010E406E020E4818D8A442EF12F07E
:1024800044EF12F05BEF12F0000120EE01F06E510C
:10249000D9266F51DA22000EDF6E6EC0D9FF6FC0F1
:1024A000DAFF480EDF6E6EC0D9FF6FC0DAFF000E94
:1024B000DB8E9FEF12F04804D8A461EF12F063EFB7
:1024C00012F09FEF12F0000E446E20EE01F03B5030
:1024D000D9263C50DA22080EDF6E20EE02F03B5087
:1024E000D9263C50DA22200EDE6E040EDD6E3BC093
:1024F000D9FF3CC0DAFF040EDF6E3BC0D9FF3CC001
:10250000DAFF000EDB8E010E446E20EE01F0395032
:10251000D9263A50DA22080EDF6E20EE02F039504A
:10252000D9263A50DA22200EDE6E040EDD6E39C056
:10253000D9FF3AC0DAFF800EDF6E9FEF12F0120073
:1025400000016B8F710E016E0F0E026E000E046E95
:10255000000E036E000E066E010E056E7CEC09F097
:10256000000E016E040E026E000E046E000E036E6D
:10257000000E066E200E056E7CEC09F06D8C000ED0
:10258000156E780E1524D96EDA6A000EDA22000E66
:10259000DF6E760E1524D96EDA6A000EDA22000E8E
:1025A000DF6E152A010E1564D8EF12F0DAEF12F083
:1025B000C1EF12F04F0E016E000E026E000E046E9F
:1025C000000E036E000E066E010E056E7CEC09F027
:1025D0006D9C080E00016E6F040E6F6F000E3B6E57
:1025E000040E3C6E3BC039F03CC03AF022C450F0BF
:1025F0005050D8A4FEEF12F000EF13F004EF13F0E8
:10260000100E866F15EF13F0000E0E6E010E0D6E9C
:10261000500E0F6E000E106E000E126E010E116E37
:1026200022EC14F0200E0001866F12002D0E436E76
:102630004EC01EF0FD0E1E16D8A421EF13F023EF9E
:1026400013F065EF13F04EC01EF0D8901E323F0E0F
:102650001E161E50040D000EF3243B6E040EF420D3
:102660003C6E3BC039F03CC03AF0040E3918396E6C
:102670003A503A6E3BC0D9FF3CC0DAFFDF30E83257
:102680000F0B0D0AD8A447EF13F049EF13F061EFD9
:1026900013F0200E016E040E026E20EE02F03B508D
:1026A000D9263C50DA22DECF03F0DDCF04F0000E55
:1026B000066E080E056E0DEC16F070EC14F071EF5E
:1026C00013F033EC15F071EF13F04E50FD0B040ACC
:1026D000D8A46DEF13F06FEF13F071EF13F025EC4A
:1026E00011F01200000E3F6E000E3E6E020E4818F2
:1026F000D8A47DEF13F07FEF13F09FEF13F020EEDF
:1027000001F03950D9263A50DA22080EDF6E20EE59
:1027100002F03950D9263A50DA22280EDE6E040E25
:10272000DD6E39C0D9FF3AC0DAFF480EDF6E39C01E
:10273000D9FF3AC0DAFF000EDB8ECBEF13F00001B9
:102740006C510401265D00016D5104012759D8B078
:10275000ACEF13F0AEEF13F0B2EF13F026C46CF051
:1027600027C46DF09DEC10F0000120EE02F06E51D8
:10277000D9266F51DA22280EDE6E040EDD6E6EC091
:10278000D9FF6FC0DAFF480EDF6E6EC0D9FF6FC091
:10279000DAFF000EDB8E1200066E000E076E040ECE
:1027A000086E0150026E036AD89002360336065056
:1027B000046E056AD89004360536D890043605367E
:1027C0000250042603500522D89004360536D890CE
:1027D00004360536045007260550082207C0D9FFE5
:1027E00008C0DAFFDF9E0150D8A4F9EF13F0FBEF29
:1027F00013F009EF14F00650020D720EF324D96E97
:10280000000EF420DA6E07C0DEFF08C0DDFF15EF12
:1028100014F00650020D6E0EF324D96E000EF42053
:10282000DA6E07C0DEFF08C0DDFF07C0D9FF08C0B1
:10283000DAFFDF9C20EE04F00750D9260850DA2298
:10284000DF8C120036EF14F0010EA5EC15F06FEFDF
:1028500014F0020EA5EC15F06FEF14F0C3EC16F0B7
:102860006FEF14F0F1EC0AF06FEF14F00DC013F0FD
:102870000EC014F01450000AD8B445EF14F07F0ACB
:10288000D8B468EF14F06FEF14F01350010AD8B405
:102890002EEF14F0030AD8B46FEF14F0010AD8B485
:1028A00032EF14F0060AD8B46FEF14F0770AD8B4F8
:1028B0006FEF14F0010AD8B46FEF14F0070AD8B420
:1028C00029EF14F0010AD8B424EF14F06FEF14F0DC
:1028D0001350FF0AD8B46FEF14F06FEF14F012002A
:1028E000000E496E000E426E000E3F6E000E3E6EF0
:1028F000000E446E000E486E6EC0D9FF6FC0DAFF46
:102900007F0EDF16040E00016E196E6F6F516F6F30
:102910006EC0D9FF6FC0DAFF7F0EDF16040E6E198E
:102920006E6F6F516F6F39C0D9FF3AC0DAFF7F0EFB
:10293000DF16000E6B6F000E6D6F000E6C6F000ED9
:10294000636F000E656F000E646F79EC0FF0000E80
:102950000E6E030E0D6E000E0F6E000E106E000E4A
:10296000126E000E116E22EC14F039EC0EF0120013
:10297000000E316E400E3124D96EDA6A050EDA226D
:10298000000EDF6E312A3F0E3164C9EF14F0CBEF39
:1029900014F0BAEF14F000017C517D11D8B4D3EFDC
:1029A00014F0D5EF14F0E0EF14F07CC0D9FF7DC037
:1029B000DAFFDFBEDEEF14F0E0EF14F0F7EF14F013
:1029C000090E0501406F84C041F54BC042F5010E70
:1029D0000001876F400E886F050E896F400E8A6F69
:1029E000010E98EC0DF087C07CF088C07DF01200DD
:1029F0000600E1CF20F0E2CF21F0D9CF22F0DACFEC
:102A000023F0F3CF24F0F4CF25F0F6CF26F0F7CF64
:102A100027F0F8CF28F0F5CF29F0A1AA12EF15F092
:102A200014EF15F01DEF15F0A0AA19EF15F01BEF2C
:102A300015F01DEF15F0A9EC07F029C0F5FF28C02F
:102A4000F8FF27C0F7FF26C0F6FF25C0F4FF24C01B
:102A5000F3FF23C0DAFF22C0D9FF21C0E2FF20C06C
:102A6000E1FF51921100020E4818D8A43AEF15F078
:102A70003CEF15F040EF15F0F6EC0CF06CEF15F0B4
:102A8000000E486E4450D8A448EF15F04AEF15F0F8
:102A90006AEF15F020EE01F03950D9263A50DA22CB
:102AA000080EDF6E20EE02F03950D9263A50DA22B5
:102AB000200EDE6E040EDD6E39C0D9FF3AC0DAFF9B
:102AC0000C0EDF6E39C0D9FF3AC0DAFF000EDB8E84
:102AD0006CEF15F0000E446E12002F6E0F0EC16EDB
:102AE000899089928994899A929092929294929ADA
:102AF000000E8A6E000E936E8B908B928B94949046
:102B0000949294948B9C8B9E949C949E9286928893
:102B1000000E0001856F2F502D6E2E6A2E50000A78
:102B2000D8B495EF15F0A4EF15F02D50000AD8B4E5
:102B3000A4EF15F0010AD8B4A4EF15F0030AD8B435
:102B4000A4EF15F0A4EF15F01200036E0F0EC16E86
:102B5000899089928994899A929092929294929A69
:102B6000000E8A6E000E936E8B908B928B949490D5
:102B7000949294948B9C8B9E949C949E9286928823
:102B8000000E0001856F0350016E026A0250000AB8
:102B9000D8B4CDEF15F0DCEF15F00150000AD8B431
:102BA000DCEF15F0010AD8B4DCEF15F0030AD8B455
:102BB000DCEF15F0DCEF15F0120070A0E2EF15F07D
:102BC000E4EF15F00BEF16F03BC0D9FF3CC0DAFF85
:102BD000800EDE18D8A4EFEF15F0F1EF15F00AEF34
:102BE00016F06EC0D9FF6FC0DAFF840EDE18D8A4CD
:102BF000FCEF15F0FEEF15F00AEF16F03BC0D9FF21
:102C00003CC0DAFF0C0EDF6E3BC0D9FF3CC0DAFFE0
:102C1000000EDB8E7090689A120003C009F004C0A9
:102C20000AF001C007F002C008F027EF16F009C053
:102C3000D9FF0AC0DAFFDF500B6E094A0A2A07C023
:102C4000D9FF08C0DAFF0BC0DFFF074A082A0506D4
:102C5000D8A00606052806E10628D8A432EF16F00B
:102C600034EF16F017EF16F012000C6E09A43BEFCC
:102C700016F03DEF16F042EF16F0000E016E0C500C
:102C8000CCEC13F009A247EF16F049EF16F04EEF27
:102C900016F0010E016E0C50CCEC13F0700E0C24EB
:102CA0000A6E0B6A0F0E0B220AC0D9FF0BC0DAFFA7
:102CB00009C0DFFF120000018651D8A462EF16F0B0
:102CC00064EF16F07FEF16F0000E6D6E000E696E69
:102CD000160E6F6E9F0E6B6E7B0E696ED08EA28A83
:102CE000A08AF28E75EF16F06D866DA67AEF16F05B
:102CF0007CEF16F074EF16F0010E0001866F1200E3
:102D0000F28CCD9ECD9CCD8ACD98CD96CD84CD92A2
:102D1000CD909F909E909D80D59ED59CD59AD5981C
:102D2000D596D594D592D580F194F294F28AB18A51
:102D3000B188B184B192B180A292A192A082000E1A
:102D4000B36E000EB26E1200000E466E000E0E6ED6
:102D5000740E0D6E000E0F6E000E106E000E126ED1
:102D6000000E116E22EC14F06D926994B9EF16F01A
:102D7000689468B4BEEF16F0C0EF16F0B8EF16F026
:102D8000000E3D6E1200000E00017C6F000E7D6F84
:102D90001E0E096E010E35EC16F0000E016E000ECF
:102DA000026E050E036E400E046E010EDAEC0EF09C
:102DB00001C07EF002C07FF01200010E3326000E2B
:102DC0003422352236224650D8A4E9EF16F0EBEF34
:102DD00016F0F5EF16F03D2A3D50D8A4F2EF16F0AC
:102DE000F4EF16F0F5EF16F03D681200698468986C
:102DF0006D82010E466E000E3D6E000E0E6E750E5B
:102E00000D6E000E0F6E000E106E000E126E000E94
:102E1000116E22EC14F0120000EE60F0270EEE6A44
:102E2000E806FDE100EE33F01E0EEE6AE806FDE175
:102E300051905192000EF86E0001AAEF11F0FF00C0
:020000040020DA
:08000000FFFFFFFFFFFFFFFF00
:020000040030CA
:0E000000240E3F1EFF8181FF0FC00FE00F4056
:00000001FF
